:020000040800F2
:100000000000022081020008CD020008CD02000895
:10001000CD020008CD020008CD020008000000005B
:10002000000000000000000000000000CD020008F9
:10003000CD02000800000000CD020008CD0200083B
:10004000CD020008CD020008CD020008CD02000854
:10005000CD020008CD020008CD020008CD02000844
:10006000CD020008CD020008CD020008CD02000834
:10007000CD020008CD020008CD020008CD02000824
:10008000CD020008CD020008CD020008CD02000814
:10009000CD020008CD020008CD020008CD02000804
:1000A000CD020008CD020008CD020008CD020008F4
:1000B000CD020008CD020008CD020008CD020008E4
:1000C000CD020008CD020008CD020008CD020008D4
:1000D000CD020008CD020008CD020008CD020008C4
:1000E000CD020008CD020008CD020008CD020008B4
:1000F000CD020008CD020008CD020008CD020008A4
:10010000CD020008CD020008CD020008CD02000893
:10011000CD020008CD020008CD020008CD02000883
:10012000CD020008CD020008CD020008CD02000873
:10013000CD020008CD020008CD020008CD02000863
:10014000CD020008CD020008CD020008CD02000853
:10015000CD020008CD020008CD020008CD02000843
:10016000CD020008CD020008CD020008CD02000833
:10017000CD020008CD020008CD02000800000000FA
:08018000CD020008CD020008C9
:100188000348044B834202D0034B03B1184770471E
:10019800000000200000002000000000054806497B
:1001A8000B1AD90F01EBA301491002D0034B03B17D
:1001B80018477047000000200000002000000000E1
:1001C80010B5064C237843B9FFF7DAFF044B13B197
:1001D8000448AFF300800123237010BD0000002005
:1001E80000000000D002000808B5044B1BB1044908
:1001F8000448AFF30080BDE80840CFE700000000E6
:1002080004000020D002000870B50D4E0D4D761B7D
:10021800B61006D00024013455F8043B9847A6428E
:10022800F9D1094E094D761B00F04EF8B61006D0EC
:100238000024013455F8043B9847A642F9D170BD13
:10024800E8020008E8020008EC020008E8020008DA
:10025800074A136B43F008031363064B1A6842F00E
:10026800AA421A605A6942F470425A61FEE700BF16
:1002780000380240000C0240DFF830D0002103E0D3
:100288000B4B5B58435004310A480B4B42189A42B7
:10029800F6D30A4A02E0002342F8043B084B9A428C
:1002A800F9D3FFF7B1FFFFF7D3FF70470000022033
:1002B800F0020008000000200000002000000020DC
:1002C8001C000020FEE70000F8B500BFF8BC08BC21
:1002D8009E467047F8B500BFF8BC08BC9E467047FC
:0402E800F101000818
:0402EC00C90100083C
:04000005080002816C
:00000001FF
