:020000040800F2
:1000000000000220B1020008FD020008FD02000805
:10001000FD020008FD020008FD02000800000000CB
:10002000000000000000000000000000FD020008C9
:10003000FD02000800000000FD020008FD020008AB
:10004000FD020008FD020008FD020008FD02000894
:10005000FD020008FD020008FD020008FD02000884
:10006000FD020008FD020008FD020008FD02000874
:10007000FD020008FD020008FD020008FD02000864
:10008000FD020008FD020008FD020008FD02000854
:10009000FD020008FD020008FD020008FD02000844
:1000A000FD020008FD020008FD020008FD02000834
:1000B000FD020008FD020008FD020008FD02000824
:1000C000FD020008FD020008FD020008FD02000814
:1000D000FD020008FD020008FD020008FD02000804
:1000E000FD020008FD020008FD020008FD020008F4
:1000F000FD020008FD020008FD020008FD020008E4
:10010000FD020008FD020008FD020008FD020008D3
:10011000FD020008FD020008FD020008FD020008C3
:10012000FD020008FD020008FD020008FD020008B3
:10013000FD020008FD020008FD020008FD020008A3
:10014000FD020008FD020008FD020008FD02000893
:10015000FD020008FD020008FD020008FD02000883
:10016000FD020008FD020008FD020008FD02000873
:10017000FD020008FD020008FD020008000000006A
:08018000FD020008FD02000869
:100188000348044B834202D0034B03B1184770471E
:10019800000000200000002000000000054806497B
:1001A8000B1AD90F01EBA301491002D0034B03B17D
:1001B80018477047000000200000002000000000E1
:1001C80010B5064C237843B9FFF7DAFF044B13B197
:1001D8000448AFF300800123237010BD0000002005
:1001E800000000000003000808B5044B1BB10449D7
:1001F8000448AFF30080BDE80840CFE700000000E6
:10020800040000200003000870B50D4E0D4D761B4C
:10021800B61006D00024013455F8043B9847A6428E
:10022800F9D1094E094D761B00F066F8B61006D0D4
:100238000024013455F8043B9847A642F9D170BD13
:1002480018030008180300081C0300081803000816
:1002580008B50D4A136B43F0080313630B4B1A6878
:1002680042F0AA421A6000225A61084C636943F4BA
:1002780020436361052000F00BF80023636105202B
:1002880000F006F8F1E700BF00380240000C024019
:100298000022044B03FB00F3934202D900BF013252
:1002A800F7E7704740420F00DFF830D0002103E045
:1002B8000B4B5B58435004310A480B4B42189A4287
:1002C800F6D30A4A02E0002342F8043B084B9A425C
:1002D800F9D3FFF799FFFFF7BBFF70470000022033
:1002E800200300080000002000000020000000207B
:1002F8001C000020FEE70000F8B500BFF8BC08BCF1
:100308009E467047F8B500BFF8BC08BC9E467047CB
:04031800F1010008E7
:04031C00C90100080B
:04000005080002B13C
:00000001FF
